:020000040800F2
:1000000000300020C9140008E9030008EB030008D1
:10001000ED030008EF030008F103000800000000F2
:10002000000000000000000000000000F3030008D2
:10003000F503000800000000F7030008F9030008BA
:1000400019150008191500081915000819150008D8
:1000500019150008191500081915000819150008C8
:1000600019150008191500081915000819150008B8
:1000700019150008191500081915000819150008A8
:100080001915000819150008191500081915000898
:100090001915000819150008191500081915000888
:1000A0001915000819150008191500081915000878
:1000B000191500081915000800000000191500089E
:1000C00019150008000000000000000019150008C4
:1000D000000000001915000819150008191500087E
:1000E00019150008191500080000000000000000A4
:1000F0000000000000000000000000000000000000
:1001000000000000000000000000000000000000EF
:100110000000000000000000191500081915000873
:1001200000000000000000000000000000000000CF
:1001300000000000000000000000000000000000BF
:100140001915000819150008000000000000000043
:10015000000000000000000000000000000000009F
:10016000000000000000000000000000000000008F
:10017000000000000000000000000000000000007F
:08018000000000001915000841
:1001880010B5054C237833B9044B13B10448AFF3C9
:1001980000800123237010BD0C0000200000000027
:1001A8007415000808B5034B1BB103490348AFF3A6
:1001B800008008BD00000000100000207415000831
:1001C80072B6FEE700B597B0282200210CA801F00E
:1001D800C5F900230793089309930A930B93019396
:1001E8000293039304930593069302230C9301232C
:1001F8001093102311930CA800F006FAA8B90F2346
:1002080007930021089109910A910B9107A800F022
:100218004DFD60B9012301930023039301A800F069
:1002280035FE30B917B05DF804FBFFF7C9FFFFF7DB
:10023800C7FFFFF7C5FF08B500F0C2F9FFF7C2FF17
:1002480000F006F800F02CF800F07AF8FEE700005D
:1002580010B586B000240194029403940494059484
:100268000E4B5A6942F400325A615B6903F4003359
:100278000093009B224607214FF0904000F0AAFF10
:1002880007230193012302930394049401A94FF0D7
:10029800904000F0C1FE06B010BD00BF0010024043
:1002A80008B50B480B4B03601023436000238360A1
:1002B800C36003614361037643768376C37603772D
:1002C800437700F0B1F800B908BDFFF779FFFBE705
:1002D800280000200064004000B589B00023039383
:1002E80004930593069307930268144B9A4202D02D
:1002F80009B05DF804FB03F5D633DA6942F0007201
:10030800DA61DA6902F000720192019A5A6942F4DC
:1003180000325A615B6903F400330293029B4FF485
:10032800C0530393022304930323069309230793DB
:1003380003A94FF0904000F06FFED9E70064004039
:1003480008B50B480B4B03604FF41643436000237A
:100358008360C36003610C2242618361C3610362ED
:1003680001F076F800B908BDFFF72AFFFBE700BFE8
:10037800500000200038014000B589B000230393E5
:1003880004930593069307930268144B9A4202D08C
:1003980009B05DF804FB03F558439A6942F48042BA
:1003A8009A619A6902F480420192019A5A6942F468
:1003B80000325A615B6903F400330293029B4FF4E5
:1003C800E06303930223049303230693072307930D
:1003D80003A94FF0904000F01FFED9E70038014014
:1003E800FEE7FEE7FEE7FEE7FEE770477047704767
:1003F80008B500F0F7F808BD82B00A4B9A6942F0D8
:1004080001029A619A6902F001020092009ADA697F
:1004180042F08052DA61DB6903F080530193019B5B
:1004280002B0704700100240002800F0A18038B5E3
:10043800044690F82030D3B12268136843F00103D2
:10044800136000F0DBF8054623685A6812F0010FC4
:1004580010D100F0D3F8401B0A28F5D9636A43F499
:1004680000336362052384F82030012038BDFFF78C
:1004780033FFE1E71A6822F002021A6000F0BEF8C2
:10048800054623685A6812F0020F0DD000F0B6F83E
:10049800401B0A28F5D9636A43F4003363620523D5
:1004A80084F820300120E1E7227E012A3DD01A6835
:1004B80022F080021A60637E012B3BD02268136809
:1004C80023F040031360A37E012B39D02268136800
:1004D80023F020031360E37E012B37D022681368D2
:1004E80043F010031360237F012B35D02268136873
:1004F80023F008031360637F012B33D0226813684D
:1005080023F004031360A368E268134322691343CA
:10051800626913436268013A21681343CB61002082
:100528006062012384F82030A0E71A6842F0800254
:100538001A60C0E72268136843F040031360C2E7FB
:100548002268136843F020031360C4E72268136825
:1005580023F010031360C6E72268136843F008030A
:100568001360C8E72268136843F004031360CAE7FE
:100578000120704710B504460E4B18784FF47A7373
:10058800B3FBF0F30C4A1068B0FBF3F000F072FE16
:1005980068B90F2C01D901200AE0002221464FF04A
:1005A800FF3000F02FFE054B1C60002000E001200A
:1005B80010BD00BF0000002008000020040000203B
:1005C80008B5074A136843F010031360032000F0CE
:1005D80007FE0F20FFF7CEFFFFF70EFF002008BD34
:1005E80000200240034A1168034B1B780B44136038
:1005F800704700BFA000002000000020014B1868D1
:10060800704700BFA0000020002800F0018370B5EB
:1006180082B00446036813F0010F3BD0B54B5B680A
:1006280003F00C03042B1ED0B24B5B6803F00C03E1
:10063800082B13D06368B3F5803F68D0002B40F0D7
:10064800928003F1804303F504331A6822F4803260
:100658001A601A6822F480221A605DE0A54B5B6874
:1006680013F4803FE6D04FF4003393FAA3F3A14B81
:1006780019684FF4003393FAA3F3B3FA83F303F042
:100688001F03012202FA03F30B4203D06368002B15
:1006980000F0C082236813F0020F00F0C580954B6C
:1006A8005B6813F00C0F00F09C80924B5B6803F0C2
:1006B8000C03082B00F08F802369002B00F0F280D8
:1006C800012292FAA2F3B3FA83F303F1845303F5F8
:1006D80084139B001A60FFF791FF0546022393FAE3
:1006E800A3F3844B1968022393FAA3F3B3FA83F3B1
:1006F80003F01F03012202FA03F30B4240F0C38008
:10070800FFF77CFF401B0228E8D903208BE2794AD7
:10071800136843F480331360764AD36A23F00F03D7
:10072800A1680B43D3626368002B36D0FFF766FFDE
:1007380005464FF4003393FAA3F36E4B19684FF450
:10074800003393FAA3F3B3FA83F303F01F030122F0
:1007580002FA03F30B429DD1FFF750FF401B6428B8
:10076800E7D903205FE2B3F5A02F09D0614B1A68DF
:1007780022F480321A601A6822F480221A60CBE7C9
:1007880003F18043A3F53C331A6842F480221A60CF
:100798001A6842F480321A60BEE7FFF72FFF054659
:1007A8004FF4003393FAA3F3524B19684FF4003314
:1007B80093FAA3F3B3FA83F303F01F03012202FAB7
:1007C80003F30B423FF466AFFFF718FF401B6428A2
:1007D800E6D9032027E2474B5B6813F4803F7FF498
:1007E8006BAF022393FAA3F3424B1968022393FADF
:1007F800A3F3B3FA83F303F01F03012202FA03F30E
:100808000B4203D02369934240F0068239480368BB
:1008180023F0F8036169F82292FAA2F2B2FA82F29E
:1008280001FA02F213430360236813F0080F00F083
:100838008D80A369002B61D0012191FAA1F2B2FA4F
:1008480082F22D4B13449B001960FFF7D7FE054633
:10085800022393FAA3F293FAA3F293FAA3F2254A96
:10086800516A93FAA3F3B3FA83F303F01F03012247
:1008780002FA03F30B4269D1FFF7C0FE401B0228BE
:10088800E6D90320CFE11B48036823F0F803616928
:10089800F82292FAA2F2B2FA82F201FA02F21343B1
:1008A8000360C1E7012393FAA3F3B3FA83F303F1D7
:1008B800845303F584139B0000221A60FFF79EFE01
:1008C8000546022393FAA3F30A4B1968022393FA05
:1008D800A3F3B3FA83F303F01F03012202FA03F32D
:1008E8000B42A1D0FFF78AFE401B0228E9D903205A
:1008F80099E100BF0010024020819010012292FA75
:10090800A2F2B2FA82F2B74B13449B0000221A609B
:10091800FFF774FE0546022393FAA3F293FAA3F2B3
:1009280093FAA3F2B04A516A93FAA3F3B3FA83F3A2
:1009380003F01F03012202FA03F30B4206D0FFF76C
:100948005DFE401B0228E6D903206CE1236813F002
:10095800040F00F0A980A44BDB6913F0805F20D15D
:10096800A14BDA6942F08052DA61DB6903F0805307
:100978000193019B01259D4B1B6813F4807F12D0C6
:10098800E368012B23D073BB03F1804303F50433E1
:100998001A6A22F001021A621A6A22F004021A6222
:1009A8001AE00025E7E7914A136843F4807313605F
:1009B800FFF724FE06468D4B1B6813F4807FDFD1BA
:1009C800FFF71CFE801B6428F5D903202BE1864A1B
:1009D800136A43F001031362E368002B3CD0FFF76E
:1009E8000DFE06462BE0052B09D07F4B1A6A22F034
:1009F80001021A621A6A22F004021A62ECE77A4BC0
:100A08001A6A42F004021A621A6A42F001021A6271
:100A1800E2E7754B196A022393FAA3F3B3FA83F357
:100A280003F01F03012202FA03F319423BD1FFF737
:100A3800E5FD801B41F28833984200F2EF800223E3
:100A480093FAA3F293FAA3F3002BE2D1022393FAC9
:100A5800A3F3654B596ADEE7FFF7D0FD064615E0BC
:100A6800614B196A022393FAA3F3B3FA83F303F0F1
:100A78001F03012202FA03F3194214D0FFF7BEFD47
:100A8800801B41F28833984200F2CA80022393FA0D
:100A9800A3F293FAA3F3002BE2D1022393FAA3F370
:100AA800514B596ADEE7B5BBE369002B00F0BA8009
:100AB8004D4A526802F00C02082A00F09980022B75
:100AC8002FD04FF0807393FAA3F3B3FA83F303F1B3
:100AD800845303F584139B0000221A60FFF78EFDF0
:100AE80004464FF0007393FAA3F33F4B19684FF095
:100AF800007393FAA3F3B3FA83F303F01F030122FD
:100B080002FA03F319426BD0FFF778FD001B0228A5
:100B1800E7D9032087E0344AD36923F08053D361AF
:100B2800C2E74FF0807393FAA3F3B3FA83F303F1A8
:100B3800845303F584139B0000221A60FFF75EFDBF
:100B480005464FF0007393FAA3F3274B19684FF04B
:100B5800007393FAA3F3B3FA83F303F01F0301229C
:100B680002FA03F3194206D0FFF748FD401B02289A
:100B7800E7D9032057E01C494B6823F47413626AD1
:100B8800206A024313434B604FF0807393FAA3F338
:100B9800B3FA83F303F1845303F584139B00012212
:100BA8001A60FFF72BFD04464FF0007393FAA3F386
:100BB8000D4B19684FF0007393FAA3F3B3FA83F35C
:100BC80003F01F03012202FA03F3194206D1FFF7CB
:100BD80015FD001B0228E7D9032024E0002022E0AD
:100BE800002020E02081901000100240007000409A
:100BF800012B1AD0104B5B6803F48031226A9142B2
:100C080015D103F47013626A934212D100200AE0EE
:100C180001207047012006E0012004E0032002E0E3
:100C2800032000E0002002B070BD0120FBE7012096
:100C3800F9E70120F7E700BF00100240164B5B6898
:100C480003F00C02082A01D01448704703F470110D
:100C58004FF4701292FAA2F2B2FA82F221FA02F278
:100C68000F49885C0C4AD26A02F00F020F2191FAF0
:100C7800A1F1B1FA81F1CA400A498A5C13F4803FB4
:100C880005D0064BB3FBF2F303FB00F07047064BAD
:100C980003FB00F0704700BF0010024000127A000A
:100CA8008C1500089C15000800093D00002800F07C
:100CB800BE8070B50D460446614B1B6803F0070300
:100CC8008B420BD25E4A136823F007030B43136071
:100CD800136803F007038B4240F0AB80236813F0DE
:100CE800020F06D0574A536823F0F003A1680B435C
:100CF8005360236813F0010F5AD06368012B2DD07D
:100D0800022B40D0022292FAA2F24E4A1068022226
:100D180092FAA2F2B2FA82F202F01F02012101FA5B
:100D280002F2104200F0878046494A6822F0030226
:100D380013434B60FFF762FC0646424B5B6803F0C7
:100D48000C036268B3EB820F32D0FFF757FC801BAD
:100D580041F288339842F0D9032067E04FF400321B
:100D680092FAA2F2374A10684FF4003292FAA2F2CD
:100D7800B2FA82F202F01F02012101FA02F20242E3
:100D8800D2D1012052E04FF0007292FAA2F22D4A1D
:100D980010684FF0007292FAA2F2B2FA82F202F0F0
:100DA8001F02012101FA02F21042BDD101203DE0EB
:100DB800234B1B6803F00703AB420AD9204A136888
:100DC80023F007032B431360136803F00703AB42B8
:100DD80033D1236813F0040F06D01A4A536823F45A
:100DE800E063E1680B435360236813F0080F07D0F2
:100DF800144A536823F46053216943EAC1035360DA
:100E0800FFF71CFF0F4B5B6803F0F003F02292FA28
:100E1800A2F2B2FA82F2D3400B4AD35CD8400B4B11
:100E280018600B4B1868FFF7A5FB002070BD012068
:100E380070470120FAE70120F8E70120F6E700BF34
:100E48000020024000100240AC15000808000020F5
:100E580004000020014B1868704700BF08000020FC
:100E680008B5FFF7F7FF074B5B6803F4E0634FF43F
:100E7800E06292FAA2F2B2FA82F2D340024AD35C5A
:100E8800D84008BD00100240BC150008F0B583B07A
:100E98000446036813F4803F44D05C4BDB6913F0CD
:100EA800805F6DD1594BDA6942F08052DA61DB69B3
:100EB80003F080530193019B0125554B1B6813F4E4
:100EC800807F5FD0514B1B6A13F4407321D0626856
:100ED80002F440729A421CD04C48016A21F44076D0
:100EE8004FF4803393FAA3F2B2FA82F2494F3A44AC
:100EF80092004FF0010CC2F800C093FAA3F3B3FAC2
:100F080083F33B449B0000221A60066211F0010F34
:100F18004CD13E4A136A23F4407361680B43136251
:100F2800002D69D1236813F0010F06D0374A136BDF
:100F380023F00303A1680B431363236813F0200F06
:100F480006D0324A136B23F01003E1680B43136396
:100F5800236813F0800F06D02C4AD36A23F4F87361
:100F680021690B43D362236813F4805F4BD0274A6F
:100F7800136B23F4807361690B431363002043E010
:100F880000259AE7224A136843F480731360FFF739
:100F980035FB06461E4B1B6813F4807F92D1FFF782
:100FA8002DFB801B6428F5D903202DE0FFF726FBD5
:100FB800064614E0154B196A022393FAA3F3B3FA11
:100FC80083F303F01F03012202FA03F30B42A0D1BB
:100FD800FFF714FB801B41F28833984211D8022393
:100FE80093FAA3F293FAA3F3002BE3D1022393FA23
:100FF800A3F3064B596ADFE7D36923F08053D36123
:1010080090E7032000E0002003B0F0BD001002408C
:101018000070004000819010F0B583B0002362E0BA
:1010280085685E000324B44025EA0405CC68B44012
:101038002C438460446824EA0C0C4C68C4F3001404
:101048009C4044EA0C0444605EE0DD08083550F832
:10105800256003F007044FEA840C0F2404FA0CF40B
:1010680026EA040E0C6904FA0CF444EA0E0440F86B
:10107800254060E0032400E0002404FA0EF42C4329
:101088000CF1020C4F4D45F82C404F4CA568D44349
:1010980025EA02064F6817F4801F01D042EA0506C8
:1010A800494DAE60ED6804EA05064F6817F4001F65
:1010B80001D042EA0506444DEE606D6804EA050673
:1010C8004F6817F4003F01D042EA05063E4D6E60B6
:1010D8002D682C404E6816F4803F01D042EA050482
:1010E800394A146001330A6832FA03F468D04FF0C1
:1010F800010C0CFA03FC1CEA0202F3D04C6804F061
:101108000304013C012C8BD94C6804F00304032C24
:101118000CD0C4685D004FF0030C0CFA05FC24EAFF
:101128000C0C8C68AC4044EA0C04C4604C6804F0B5
:101138000304022C89D004684FEA430E4FF0030CD5
:101148000CFA0EFC24EA0C0C4C6804F0030404FAB4
:101158000EF444EA0C0404604C6814F4403FC1D017
:101168001A4CA56945F00105A561A46904F00104BC
:101178000194019C4FEA930C0CF10205114C54F8B0
:10118800255003F003044FEA840E0F2404FA0EF4EA
:1011980025EA0405B0F1904F3FF46EAF0C4CA04225
:1011A8000AD004F58064A04208D004F58064A04207
:1011B8003FF460AF052460E701245EE702245CE7A2
:1011C80003B0F0BD000001400004014000100240DF
:1011D800000400480AB181617047816270470000CD
:1011E800074AD36823F4E0631B041B0C000200F4D5
:1011F800E060034343F0BF6343F40033D3607047B8
:1012080000ED00E000B5194BDB68C3F30223C3F11E
:10121800070CBCF1040F28BF4FF0040C03F1040EB7
:10122800BEF1060F18D9033B4FF0FF3E0EFA0CFC37
:1012380021EA0C0199400EFA03F322EA0303194349
:1012480000280BDB0901C9B200F1604000F56140DC
:1012580080F800135DF804FB0023E5E700F00F00B9
:101268000901C9B2024B1954F4E700BF00ED00E0D0
:1012780014ED00E00138B0F1807F0BD24FF0E0238D
:101288005861054AF02182F823100020986107224E
:101298001A6170470120704700ED00E010B5044660
:1012A8008368026913434269134343F400430168A6
:1012B8000868334A024013430B60236A43F4006210
:1012C800A369E1690B431343E2681A4321684B6839
:1012D80023F47C5313434B6023682A4A934209D072
:1012E800294A93422CD002F58062934228D00023E9
:1012F80001202EE0254B1B6B03F00303032B3AD888
:10130800DFE803F01E0C16026268530803F5740345
:1013180003F51053B3FBF2F300201AE0FFF78EFC3D
:101328006268530803EB4003B3FBF2F3002010E0BC
:101338006268530803F58033B3FBF2F3002008E03A
:10134800FFF78EFD61684A0802EB4003B3FBF1F337
:101358000020A3F110014FF6EF7291420ED89AB215
:1013680022F00F02C3F3420313432268D360002321
:10137800A363E36310BD00230120EAE70120F6E739
:10138800F369FFEF003801400044004000100240BC
:101398002DE9F84305460F4616469946DDF82080A4
:1013A8002C68E46937EA04030CBF4FF0010C4FF0D6
:1013B800000CB44513D1B8F1FF3FF1D0FFF71EF987
:1013C800A0EB0900404502D8B8F1000FE8D101238D
:1013D80085F84930002385F84830032000E00020D4
:1013E800BDE8F88330B583B004460023C364FFF733
:1013F80005F905462268126812F0080F0CD1236817
:101408001B6813F0040F15D1012384F8493000201C
:1014180084F8480003B030BD4FF47A730093034654
:1014280000224FF400112046FFF7B2FF0028E6D053
:101438000320EFE74FF47A7300932B4600224FF412
:1014480080012046FFF7A4FF0028DDD00320E1E754
:1014580048B310B5044690F84930FBB1022384F82C
:1014680049302268136823F0010313602046FFF710
:1014780015FF012811D02268536823F48043536074
:101488002268936823F02A0393602268136843F064
:10149800010313602046FFF7A5FF10BD80F8483010
:1014A800FEF76AFFDAE7012070470000034AD2F826
:1014B800883043F47003C2F88830704700ED00E0CC
:1014C800DFF834D0FFF7F2FF0C480D490D4A00232E
:1014D80002E0D458C4500433C4188C42F9D30A4AE1
:1014E8000A4C002301E013600432A242FBD300F04F
:1014F80011F8FEF7A0FEFEE70030002000000020F3
:101508000C000020CC1500080C000020A4000020CE
:10151800FEE7000070B50D4D0D4C641BA4100026AD
:10152800A64209D10B4D0C4C00F020F8641BA41006
:101538000026A64205D170BD55F8043B98470136F0
:10154800EEE755F8043B98470136F2E7C415000862
:10155800C4150008C4150008C8150008024403464D
:10156800934200D1704703F8011BF9E7F8B500BFB3
:10157800F8BC08BC9E467047F8B500BFF8BC08BC6C
:041588009E467047C4
:10158C0002030405060708090A0B0C0D0E0F1010B8
:10159C000102030405060708090A0B0C0D0E0F10B7
:1015AC000000000000000000010203040607080907
:0815BC0000000000010203041D
:0415C400AD0100086D
:0415C800890100088D
:0C15CC00010000001000000000127A0076
:04000005080014C912
:00000001FF
